:020000040000FA
:100000000C9466000C9483000C9483000C94830081
:100010000C9483000C9483000C9483000C94830054
:100020000C9483000C9483000C9483000C94420481
:100030000C9483000C9483000C948D040C94820423
:100040000C9483000C9483000C9483000C94830024
:100050000C9483000C9483000C9483000C94830014
:100060000C9483000C94830006131F2B36414C55CF
:100070005E666D73787B7E7F7F7E7B78736D665E58
:10008000554C41362B1F1306FEFAF6F2EEEAE6E275
:10009000DEDAD6D2CECAC6C2BEBAB6B2AEAAA6A260
:1000A0009E9A96928E8A86827F7F7F7F7F7F7F7FD8
:1000B0007F7F7F7F7F7F7F7F7F7F7F7F7F7F7F7F50
:1000C0007F7F7F7F7F7F7F7FB504DE0E11241FBE81
:1000D000CFEFD8E0DEBFCDBF26E0A0E0B1E001C0A9
:1000E0001D92A43BB207E1F710E0C5E6D0E004C0E2
:1000F0002197FE010E946D11C436D107C9F70E94F5
:10010000D4040C948D110C940000FC0192AD26A532
:1001100030E084E0989FA00111244C73042E000C61
:10012000550B907319F4519541955109240F351FC2
:1001300037FD08C02F3F310519F014F02FEF30E0E4
:1001400026A7089520E0FCCFFC01862F8F7009F0D0
:1001500062AF92AD95FF1FC026A530E084E0989F66
:10016000A00111244C73042E000C550B9073903297
:1001700019F4519541955109240F351F37FD09C0D8
:100180002F3F310519F014F02FEF30E026A780E063
:10019000089520E0FBCF81E00895DC016623A9F0FB
:1001A000D7966C93D7974115510521F0D9965C935A
:1001B0004E93D897603E08F448C098968D919C91D4
:1001C0009997892B31F480E00895D7966C91D79751
:1001D000EACF9C96ED91FC919D97262F30E0603FF1
:1001E00088F1205F3109220F331F220F331F4E1772
:1001F0005F0718F4319521953109E20FF31F91E063
:10020000121613060CF090E081E0E417F50708F0F1
:1002100080E09813FA019D96FC93EE939C97809151
:10022000340490913504E817F90738F080913604CA
:10023000909137048E179F0730F699961C921E9264
:100240009897C1CF205E3109D2CF81E008954F92B7
:100250005F926F927F928F929F92AF92BF92CF9256
:10026000DF92EF92FF921F93CF93DF936B017C019C
:100270000E94D00F162F70E090E080E00E940110E5
:100280009B01AC01C701B6010E94EA0E6B017C0123
:1002900020E030E040E05FE30E948D10D0E0C0E05D
:1002A000181664F420E030E040E05FE3C701B601D7
:1002B0000E94EA0E6B017C01C1E0D0E0A70196012B
:1002C000C701B6010E9492102B013C0128E23DE8D3
:1002D00046EA51E40E94EB0E4B015C012DE63CE442
:1002E0004CE65DE3C301B2010E94921026EA33EEB0
:1002F00046EE50E40E94EB0EA70196010E94921078
:100300006B017C0161E070E002C0660F771F1A95F7
:10031000E2F7072E000C880B990B0E9401102B01AD
:100320003C01A7019601C501B4010E94EB0E9B019F
:10033000AC01C301B2010E9492102B013C01A70144
:100340009601C501B4010E94EA0E9B01AC01C301F4
:10035000B2010E94570FCD2B31F023EF34E045EB73
:100360005FE30E949210DF91CF911F91FF90EF9079
:10037000DF90CF90BF90AF909F908F907F906F90C5
:100380005F904F900895282F30E08091320480FFD5
:1003900013C088E790E0821B930B56E0880F991FEB
:1003A0005A95E1F79B0177FF02C02F5F3F4F3595CC
:1003B0002795821B930B08953695322F2227379568
:1003C0002795620F731F072E000C880B990B0E9454
:1003D000011020E030E040EC54E40E94570F0E94EE
:1003E00027019B01AC0160E070E086ED96E40E947D
:1003F000570F20E030E040E05FE30E94EB0E0E94E8
:10040000D00FCB0108958F929F92AF92BF92CF925F
:10041000DF92EF92FF920F931F93CF938C01C62F21
:1004200060912604709127048091280490912904FA
:100430000E94FF0F6B017C018091320480FF38C065
:1004400060E07EE1601B710B90E080E00E94FF0F96
:1004500020E030E040E454E40E94570F0E9427015E
:100460004B015C01A701960160E07CEA82E897E419
:100470000E94570FA50194010E94921020E030E0E5
:1004800040E05FE30E94EB0E0E94C90FC11103C060
:10049000719561957109CB01CF911F910F91FF90DB
:1004A000EF90DF90CF90BF90AF909F908F90089586
:1004B000A70196016AE37CE788ED9EE40E94570F4E
:1004C0006B017C01B80190E080E00E94FF0F9B016E
:1004D000AC01C701B6010E94570FD0CF0F931F93F5
:1004E000CF93DF93EC0108A519A501151105D9F1EA
:1004F0002CA53DA568AD79AD4FA950E0261737076B
:100500001CF051954195510980913804849FD00188
:10051000859FB00D11242A0F3B1F91E01A161B0670
:100520000CF090E081E0261737070CF080E098137C
:100530009B013DA72CA78091340490913504281786
:100540003907B0F0809136049091370482179307F1
:1005500078F0612F6095661F6627661FC9010E94AB
:10056000030299A788A7DF91CF911F910F9108955A
:1005700090E080E0F6CF0F931F93CF93DC01989625
:100580004D915C91999741155105D9F1DE96CC9129
:10059000DE978C2F0C2E000C990BDD96EC91DD97DD
:1005A000E37020E2E29FF0011124C7FF2EC0E81B98
:1005B000F90BE959FF4FE491E1958D01652F6095A5
:1005C000661F6627661FDC963C91DC972E2F23035F
:1005D000F0011124EF2FFF0FFF0B9C968D919C9142
:1005E0008E0F9F1F0E940302D80199969C938E93B1
:1005F0009897DB968C91DB97C80FC03264F4DE9637
:10060000CC93CF911F910F910895E80FF91FE859EE
:10061000FF4FE491D2CFC054F801C6AFF2CFCF93D1
:10062000DF93DC01EB01ED91FC911197249198810E
:1006300030E0092E02C0359527950A94E2F7822F03
:10064000940F98839830B8F06D917C9111976F5FFB
:100650007F4F11967C936E93588158505883552341
:1006600051F0ED91FC918491451B550B01C0880F11
:100670004A95EAF7822BDF91CF9108957F928F926E
:100680009F92AF92BF92CF92DF92EF92FF920F9321
:100690001F93CF93DF93FC01A081B181E0912404EB
:1006A000F0912504AE17BF0709F48DC04701790109
:1006B0006A015B01EC018E818370813009F491C085
:1006C00008F498C0823009F4A9C0712C872D81717B
:1006D000803109F4B9C0813109F4BAC0813071F4B4
:1006E00047E0BE016C5F7F4FCE010E940F038F7702
:1006F000F50180838F81888780818F83872D827227
:10070000803209F4A7C0823209F4A8C0823071F4A3
:1007100046E0BE016C5F7F4FCE010E940F038F73D6
:10072000F601808389858A8780818987872D8474F3
:10073000803409F495C0843409F496C08430E1F41F
:100740008E8196E0D92E83FF02C088E0D82E4D2DF1
:10075000BE016C5F7F4FCE010E940F0321E030E0AD
:1007600001C0220FDA94EAF721502823F7012083F1
:100770008B858C8780818B87872D8878803809F4DA
:1007800075C0883809F479C08830E9F47E01F4E056
:10079000EF0EF11C44E0B701CE010E940F038F70F1
:1007A000F801808348E0B701CE010E940F03F401F5
:1007B00080838D858E87F80180818D878F85888BDA
:1007C000F40180818F87DF91CF911F910F91FF906E
:1007D000EF90DF90CF90BF90AF909F908F907F90E1
:1007E000089541E0BE016C5F7F4FCE010E940F0370
:1007F00080FF6BCF8E8144E082FD48E0BE016C5FDC
:100800007F4FCE010E940F039E8192FD1BC09FE08F
:10081000782E792289898A8B798A58CF42E0BE0165
:100820006C5F7F4FCE010E940F038370823031F0E6
:10083000833031F0813009F048CFDCCF798846CF62
:100840007A8844CF9FEFE4CF8F81F501808356CF24
:100850008885FBCF8985F601808368CF8A85FBCFA9
:100860008B85F701808388CF8C85FBCF8D85F80140
:1008700080838F85F4018083A6CF8E85F8018083E5
:100880008889F8CF1F920F920FB60F9211242F93E1
:100890003F934F938F939F93EF93FF932091010189
:1008A00030910201F901EE0FFF1FEC5FFE4F8081D6
:1008B000918180589F4F118210828F3F910531F0B6
:1008C00028F080389048E0F48FEF90E02F5F3F4FA2
:1008D000203941E0340711F430E020E03093020188
:1008E000209301018093B400FF91EF919F918F912C
:1008F0004F913F912F910F900FBE0F901F90189521
:1009000080E0E4CF1F920F920FB60F9211245C98F3
:100910000F900FBE0F901F9018951F920F920FB659
:100920000F9211248F93809100018330B8F48F5F70
:100930008093000180910001811101C05C9A809137
:100940000001813071F080916E00846080936E00B0
:100950008F910F900FBE0F901F901895109200016D
:10096000E9CF80916E008B7FF1CFE1E0F1E0118261
:10097000108281E08283E4E0F1E080E293E0DF0135
:100980009C011D9221503040E1F7E4E2F4E0118235
:1009900010821282138214821582178216821386A5
:1009A00012861092AF060895CF93DF93CDB7DEB7CE
:1009B000E3970FB6F894DEBF0FBECDBF8091380429
:1009C0008823E1F32091010130910201809103011C
:1009D00091E0283C310508F090E08913EFCF40E921
:1009E00051E0849F9001859F300D11242C5F3E4F74
:1009F00091E089278093030148EC50E058A74FA36A
:100A00008091A6069091A7064091A8065091A9064C
:100A1000841B950BAFA0B8A4A816B90608F4C501AD
:100A2000AC01440F551F5901A40EB51EBAA6A9A6C4
:100A300020903C044DE4249E10011124B101625C1D
:100A40007B4F1B014090240450902504AEE3B4E09A
:100A5000BBABAAAB10E0EAA9FBA9A0A5B1A5109772
:100A600009F47BC0C2A0D3A0F601459155916591D0
:100A70007491440D551DF601349665917491F601FB
:100A8000389665907490EAA9FBA984A095A0A6A0C9
:100A9000B7A0FF24EB2CDA2CC92CCBA2DCA2EDA250
:100AA000FEA2C40ED51EDCA2CBA26A01C60ED71EC2
:100AB000BF016A5B7F4FFB01618166956CA71DA634
:100AC000EAA9FBA906A5ECA4FDA40E9DB0010F9D0B
:100AD000700D11247D0160E0EBA1FCA1D901A9A456
:100AE000BAA4AF93BF9364916703612D660F660B41
:100AF0000C90010C0D920C90061E0D928E0CEF1DA9
:100B0000F11FEC15FD0520F4AA15BB0561F707C020
:100B1000E619F709062C0728B9F7EE24FF2411245B
:100B2000BF91AF91FCA3EBA3E41BF50BAF0170E009
:100B300060E0762F652F542F4427480D511D611D0D
:100B4000711DAAA9BBA994964D935D936D937C9357
:100B500097979996FC92EE9298974AA95BA9435B66
:100B60005F4F5BAB4AAB2416350609F074CFAFA0DC
:100B7000B8A4A81AB90AB8A6AFA22091A8063091C5
:100B8000A906820F931F9093A9068093A80620912F
:100B9000A6063091A7068217930711F00C94D40E85
:100BA0008091AE068F5F8093AE069091AF06891359
:100BB0000C94510D8091B106815009F4EEC08093E0
:100BC000B1061092AE0680913A04882311F40C9479
:100BD000C50EA0903C04ABA62090240430902504C0
:100BE0009101285E3F4F39AB28AB0EE514E0A12CF4
:100BF000BBA4BA1411F40C94C50ED8015096BC9045
:100C00005097BB1CBB24BB1CED90FC90F7013296A7
:100C1000259134912F3F320709F495C0E8A9F9A92D
:100C200085919591A591B491820F931F820D931D8B
:100C3000F80145A124E04202F001112436969C01FE
:100C40002E0F3F1FF9013496C590D490D80193968A
:100C50006D917C9194976F5F7F4F94967C936E9388
:100C600093976C157D0548F1FC01BB2011F40C94A1
:100C7000A20E3196249131963491FC015491EFEFFC
:100C8000E50F5E2F3E1708F4532F4F5F642F042E9D
:100C9000000C770B5617170611F40C94A50ED8010B
:100CA00095964C93D8019596EC91B4E0EB02F00147
:100CB000112436969C012E0F3F1FF9014591549146
:100CC0005CA34BA3F901329685909490F901369676
:100CD000659174917BAB6AABD80193966D917C91D1
:100CE000641B750B90E080E00E94FF0F2B013C011C
:100CF000EBA1FCA1CE1ADF0AB60190E080E00E94D1
:100D0000FF0F9B01AC01C301B2010E94570F2B01E1
:100D10003C01CAA8DBA8B60190E080E06819790917
:100D2000810991090E9401109B01AC01C301B2012C
:100D30000E9492100E94C90F680D791DD8019796E4
:100D40007C936E939697BB2021F1F80181A192A12B
:100D5000F7A1FEA71FA6492F5527CEA4DFA4C49E46
:100D60009001C59E300DD49E300D1124D801979668
:100D70003C932E939697F701369625913491281738
:100D8000390710F00C94C10E821B930BF80192A34B
:100D900081A3A394035B1F4F2BCF81E08093B10607
:100DA00040913D0454E2252E54E0352E2E0121E1E0
:100DB000420E511CB201CE010196F101262F2419D9
:100DC000241770F4228D338DDC012D933D93CD01DA
:100DD000268DDB012D93BD0111AEE35BFF4FEECFFE
:100DE000712C1BA21BA680913C04781608F082C5CA
:100DF000A72CB12CBDE47B9EC0011124FC01E25C58
:100E0000FB4F4F018FEF8AA389A388A38F8F809117
:100E10003D04781690F49E01225E3F4F79018E01C9
:100E2000015E1F4F2E5F3F4FAE014F5D5F4FBE0112
:100E30006E5D7F4FCF010E943E03E0912A04F09146
:100E40002B04309799F18FEF8D8F8C8F8B8F8A8F3A
:100E5000AE01475E5F4F6A01BE01665E7F4F7B0158
:100E60008E01055E1F4F9E01245E3F4F4C5F5F4F1A
:100E7000672D80912C0490912D0409958D8D8A37D2
:100E800008F48AA3E0912404F0912504BE96E4912D
:100E90008C8D8E1708F489A38B8D8F3F09F088A362
:100EA0008A8D8F3F19F08F8F898D8E8F8AA18F3F0A
:100EB00071F08837A9F58DE48A9DF0018B9DF00DC6
:100EC0001124EA59FB4F118210828FEF8AA329A1C6
:100ED0002F3F09F061C0CC24C3949AA19F3F59F0E1
:100EE0008DE48A9DF0018B9DF00D1124E159FB4F9B
:100EF0008081890F8AA38DE48A9D90018B9D300D9E
:100F000011242C5D3B4F7901BEE4EB0EF11C8FEFF9
:100F1000F701808368A16F3F09F034C101E069C126
:100F20002DE48937B9F42A9DC0012B9D900D112421
:100F30008C5D9B4FFC01E65BFF4F208127FDC5CFF9
:100F400020682083855A9F4FEFEFFFEFDC01ED9380
:100F5000FC93BBCF2A9DC0012B9D900D11248C5D6D
:100F60009B4FFC01E35AFF4FCC24CA94DC2CD18266
:100F7000C08232962FEF20833196D182C082329682
:100F8000D182C082329620838B599F4FE0E0F0E8F7
:100F9000DC01ED93FC939BCF6AA000912404109197
:100FA000250480913A04B0E8FB2EEE24EA948823CD
:100FB00009F457C0F801709685919591A591B49167
:100FC000FAE02F9F90011124820F931F800F911F31
:100FD0002DE42A9DD0012B9DB00D1124AC5DBB4F9B
:100FE000DB969C938E93DA97FC013896E4903196C9
:100FF000F490FC0185919491FC0120913B0430E038
:101000008217930708F4BCC0CC24CA946C10ACC0FF
:10101000A65BBF4F4C91A42FAF77F8017C9645910A
:10102000559165917491FC01E21BF30BE40FF51FE0
:10103000E00FF11F8491883708F09AC031968491AF
:101040008A1708F493C0319684913196E4919DE417
:101050009A9DD0019B9DB00D1124A159BB4F8C933B
:101060002E2FF8013C96459155916591749130E190
:10107000239FF0011124E40FF51F0E0F1F1F8DE4B5
:101080008A9DF0018B9DF00D1124EC5DFB4F84AD2A
:1010900095AD08171907D1F0DF01DE961D921D925C
:1010A0001D921C9213976F0142E4C40ED11CD6010D
:1010B0008D919C91892B51F0EA5BFF4F61E080811B
:1010C00091810E940302F601918380838DE48A9DC1
:1010D000D0018B9DB00D1124AC5DBB4FDD961C93F0
:1010E0000E93DC97F8013F96E491CD01885B9F4F0A
:1010F000EE9E90011124FC013083F8013C9685910D
:101100009491AC5BBF4F8D939C93F0E8FF1207C0A6
:10111000F8013B96F490A0E8CA2EFC1449F08DE447
:101120008A9DF0018B9DF00D1124E359FB4FF08255
:10113000DD24DA946D10CFCE2DE42A9DC0012B9DC5
:10114000900D11248C5D9B4FFC01EE5BFF4F2081C5
:101150003181232B09F4BFCE865B9F4FDC018C913C
:101160008F778AA3C12CB9CEA62D57CF339667CFE0
:101170008A2F90E0880F991F0196E80FF91F64CF1E
:1011800080E065CF603488F470E0285B3F4FCB018E
:10119000880F991F880F991FF4E075956795FA9548
:1011A000E1F7682BD9016C93B9CE162F1F70862FEB
:1011B000807F803909F483C008F054C0803639F04C
:1011C00008F03DC0803419F0803509F0A7CE6F7368
:1011D000C4010E94A400082F882309F49FCE8DE447
:1011E0008A9DF0018B9DF00D1124EE58FB4F80E499
:1011F00080838DE48A9DF0018B9DF00D1124E059D0
:10120000FB4F8FEF8083EF8DEF3F09F4CFC0E031CC
:1012100008F0CCC0F0E0E15FF64F0C946D11D109FD
:10122000F309FF09060A170A2A0A2D0A530A680A4F
:10123000D609E30A080B160B3B0B500B030C803747
:1012400009F4C5CF803809F069CE4FEF5FE7612F11
:10125000C4010E94CD00082F882309F45FCE80EAE4
:10126000F701C6CF803C09F459C068F4803AA9F16F
:10127000803B09F053CE112309F450CE2B5A3F4F37
:10128000D9011C934BCE803E09F45EC0803F09F427
:1012900072C0803D09F042CE61E8112331F0F0E1E7
:1012A0001F9FB0011124612B60588DE48A9DF001CD
:1012B0008B9DF00D1124E359FB4F60832FCE41E04D
:1012C00050E0612FC4010E94CD00082F882309F44B
:1012D00025CE80EAD7018C938CCF8AA18F3FD9F09D
:1012E0002C5B3F4FF901608171810E94C301AC0109
:1012F000612FC4010E94CD00882351F08DE48A9DA6
:10130000F0018B9DF00D1124EE58FB4F80EA808395
:101310008FEF8AA303CE90E080E0E9CF112341F064
:101320002A5A3F4F612F660F660F660FF9016083DF
:101330008DE48A9DF0018B9DF00D1124EE58FB4F3A
:1013400080EC808300E055CFF901E75BFF4F80819F
:10135000803809F4E3CD082E000C990B24E0129F8D
:1013600080199109112481383FEF930714F481E823
:101370009FEF8083D3CDF901E75BFF4F80818038F9
:1013800009F4CCCD44E0149FB0011124680F711D05
:1013900087FD7A95603871050CF48FCF6FE770E0A8
:1013A0008CCFEE8DE03220F4E093AF0610E0BEC0AB
:1013B000209126043091270440912804509129045B
:1013C000ADE7B0E00E94731152E3E59F9001112454
:1013D000032E000C440B550B0E944B113093A706B3
:1013E0002093A606E3CF8E8D8150990B9093AB0688
:1013F0008093AA068091AC068093AD06D7CF8091EA
:10140000AC068093AD066E8D6BA3D0CF6E8DC401FC
:101410000E94A400882351F28DE48A9DF0018B9DE7
:10142000F00D1124E059FB4F83E08083BFCF4FEFD5
:101430005FE76E8DC4010E94CD00882309F4B6CF0A
:101440008DE48A9DF0018B9DF00D1124E059FB4F36
:1014500086E0EBCF41E050E0ECCF8AA18F3F01F175
:101460009DE49A9DF0019B9DF00D1124E859FB4FDE
:10147000608171810E94C301AC016E8DC4010E9424
:10148000CD00882351F08DE48A9DF0018B9DF00DF5
:101490001124E059FB4F86E080838FEF8AA386CF2B
:1014A00090E080E0E9CF2DE42A9DC0012B9D900DB6
:1014B00011248C5D9B4FFC01E45BFF4F27E02083F0
:1014C0001E8D112399F1805B9F4FDC011C936ECF21
:1014D0008E8D282F30E064E0359527956A95E1F7E9
:1014E000922F8F7061F04DE44A9DF0014B9DF00DFD
:1014F0001124E658FB4F880F880F880F80839923AB
:1015000049F08DE48A9DF0018B9DF00D1124E75880
:10151000FB4F20838DE48A9DF0018B9DF00D1124FB
:10152000E059FB4F88E0808310E000E0DAA03FEF55
:10153000D31609F4BAC12DE42A9DC0012B9D900D4C
:101540001124AC014C5D5B4F7A01DA01DC968D9180
:101550009C91892BB1F1FA01EC5BFF4F60817181A5
:101560008D2D0E94C301F701EA5BFF4F91838083B9
:101570003496D082CC2061F03C97412F50E070E04F
:1015800060E0BA0155274427408351836283738307
:1015900061E00E9403022DE42A9DF0012B9DF00DD5
:1015A0001124EC5DFB4FDF01AE5BBF4F11969C93A6
:1015B0008E93C1AE55968C9182FD03C0E85AFF4FC1
:1015C0001082739410CC8AA18F3FF9F09DE49A9D0C
:1015D000F0019B9DF00D1124E859FB4F6081718152
:1015E0000E94C301AC0160E0C4010E94CD006E8D79
:1015F000C4010E94A4008DE48A9DF0018B9DF00D32
:101600001124E059FB4F8AE047CF90E080E0EACF19
:101610006E8DC4010E94A4008DE48A9DF0018B9D13
:10162000F00D1124E059FB4F8BE07DCF9DE49A9D96
:10163000D0019B9DB00D1124AC5DBB4FFD01FE960A
:1016400010821182128213828E8D7B96282F2F702A
:1016500020833D972CE0208395012F5F3F4F929F81
:10166000F001939FF00D1124EC5DFB4F808381E02E
:10167000D9968C939BCE1E8D8DE48A9DF0018B9D17
:10168000F00D1124EE59FB4F812F90E0B0E0A0E067
:10169000DC019927882780839183A283B38346CF77
:1016A0001E8D812F90E044E0959587954A95E1F74E
:1016B0008530910509F44BC05CF48230910581F1CD
:1016C000049709F073CE1F701F5F1093B1066ECEA2
:1016D0008630910509F480C0079709F067CE9AA17A
:1016E0009F3F09F463CE8DE48A9DF0018B9DF00D40
:1016F0001124EC5DFB4FDF01A45BBF4F2EE72C9361
:1017000095012F5F3F4F829FD001839FB00D112421
:10171000AC5DBB4F1F701C93E65AFF4F9083BDCE4C
:10172000812F8370833041F48091A8069091A9069F
:1017300063E070E00E9423119DE49A9DF0019B9D5F
:10174000F00D1124E558FB4F1470812B6ECE1F70E5
:101750001E8F112399F08091B206882361F0815089
:101760008093B2061091B206112309F4DFCE10E087
:1017700021E02BA7DBCE1093B206F4CF8091AD060B
:101780008093B306920184E294E0AE014F5F5F4F15
:10179000E0913D04B90164197509E617170609F0CF
:1017A00008F4C4CEFA0161917191AF01DC015D963C
:1017B0007C936E935C97F90161919F015F966C93A6
:1017C0005F979D96FC01B1966CE001900D926A9531
:1017D000E1F7835B9F4FDCCF8DE48A9DF0018B9D09
:1017E000F00D1124E059FB4F9EE6908395012F5F89
:1017F0003F4F829FF001839FF00D1124EC5DFB4F62
:101800001F701083D3CD9E8D8DE48A9DF0018B9D3A
:10181000F00D112497FF42C0EC5DFB4FDF01A75B89
:10182000BF4F8C91803809F4C1CD292F2F70E15B17
:10183000FF4F2223E1F090834E8D46FF25C0082EF6
:10184000000C990B220F220F30E045FF14C0820FCD
:10185000931F8038910514F08FE790E09DE49A9DE6
:10186000F0019B9DF00D1124E359FB4FDECD20814B
:101870002E8F2F70E1CF821B930B8138FFEF9F07D4
:101880006CF781E89FEFEACF8DE48A9DF0018B9D94
:10189000F00D1124E059FB4F8FE0C7CDE359FB4F0A
:1018A000892F90E0880F991FC0CD002309F489CEBD
:1018B0002DE42A9DC0012B9D900D11248C5D9B4F22
:1018C0008C010E5B1F4FF8012081318121153105FC
:1018D00009F477CE632F6095661F6627661F8A5BC3
:1018E0009F4FDC018D919C910E940302F80191832E
:1018F000808367CEABA4AA2059F124E234E050E003
:1019000040E080913D0484171506E9F0E0F0D9012C
:101910005C968D919C915D975B969C938E935A9764
:101920005F968C915F975E968C935E979196F90186
:10193000BD968CE001900D928A95E1F74F5F5F4F65
:10194000235B3F4FDECF8091B30681508093AD067D
:101950008091AD0691E0980F9093AD069091AC0602
:1019600089132FC98091AA069091AB060196909396
:10197000AB068093AA06C0902404D0902504F601FB
:10198000BA96259134918217930721F41092AB06F1
:101990001092AA068091AA069091AB06992790937F
:1019A000AB068093AA06ABA0A092AD061092B20639
:1019B0001092B306F6017496459155916591749114
:1019C000FC01F096EC0DFD1DE4918091390490E04E
:1019D0000196880F991FE89F9001E99F300D11240F
:1019E000420F531FC40ED51EF60184918093AC069E
:1019F000B12CA12CFBA14F2E512C80913D048A15B6
:101A00001B0409F008F4DDC831012AE1620E711CE3
:101A10003FEFA31AB30AF501EE0FFF1FEC0DFD1DFA
:101A2000259134918091240490912504820F931F75
:101A3000D1015B969C938E935A975E961C925E970B
:101A40005D969C938E935C975F961C92232B51F02E
:101A500044E0B101625E7F4FC3010E940F038F70AB
:101A6000F10180A3912C812C84149504B0F49E0183
:101A7000275E3F4F79018E01065E1F4F2E5F3F4F5D
:101A8000AE01445E5F4FBE01635E7F4FC3010E94A3
:101A90003E033FEF831A930AE7CF4DE4240E311C37
:101AA000ACCF8091B0068F5F8330D1F18093B006C8
:101AB0000EE314E0F12CE12C77247A94F2E0AF2EBF
:101AC000B12CA3E06A2EB3E08B2E912C80913C04C4
:101AD0008E151F0409F010F40C94E305D8015F96ED
:101AE0001C925F97D4968C91803AE9F0803CF9F093
:101AF000803419F4C8010E948500F80182A98A3057
:101B000009F4C2C008F5863009F4BAC0A0F48330E5
:101B100009F4C5C0BFEFEB1AFB0A035B1F4FD6CF1A
:101B20001092B006C5CFC8010E946E02E6CFC80170
:101B30000E94BB02E2CF873009F47AC0883051F7A7
:101B4000C8010E94BB02E6CF8F3009F4DBC008F069
:101B500041C08B3009F4A7C08C30E1F667AD4FEF80
:101B6000460F47AF4111D6CF23A9822F8F7087AF81
:101B700086A5682F70E030E0E4E035952795EA957A
:101B8000E1F72730310509F4AFC00CF092C02630E0
:101B9000310509F498C0C90187709927F50102C081
:101BA000EE0FFF1F8A95E2F7CF01992723FD03C0AF
:101BB000919581959109680F791F77FF8AC0D801A7
:101BC0009E964C93F80114A215A216A217A281E0CA
:101BD000878FA0CF8E3609F48AC08E3709F09ACF4E
:101BE00083A9815083AB811195CF82A193A1892BC9
:101BF000E9F0E05CFF4FD080D8019A966D917C911E
:101C00008D2D0E94C301F80195A784A7D0AA14A224
:101C100015A216A217A261E00E940302F80191A783
:101C200080A781E0878F85AD82FF16AED80167C09F
:101C3000C0A4D1A4C114D10409F46CCF62A573A5CA
:101C400086A990E02091B006B4E02B9F900111246A
:101C500002C0959587952A95E2F78F7090A99F7796
:101C6000890F0E94C3016D2D6095661F6627661F50
:101C70000E940302D80199969C938E9398974ACF1D
:101C8000C8010E946E0246CF87A9803E18F4C801A1
:101C90000E946E02D801DA968C9185FD3BCFC80177
:101CA0000E94850037CFC8010E94BB02F80182ADB7
:101CB000F4CF2E303105A9F02F30310509F06BCF6C
:101CC000660F771F06C0CB01880F991FB4010E94D1
:101CD00037116F3F710519F014F06FEF70E0462F68
:101CE0006ECF869DB001112475956795F2CFD8010E
:101CF00083A9815083AB81110DCF11A610A6D29676
:101D00007C9208CF45A987A5082E000C990B242F9B
:101D10002F70220F220F30E045FF0BC0820F931F60
:101D20008038910514F08FE790E0D8019F968C934E
:101D3000F1CE821B930B8138FFEF9F07B4F781E848
:101D40009FEFF3CF33960C943A062E1708F4E22F48
:101D5000E51788F4D8019596EC93B4E0EB9FF00179
:101D600011243696E80FF91F25913491F80134A318
:101D700023A30C9452062FEF2E0FD80195962C9387
:101D8000ECCF90E080E00C94C606E0912E04F09138
:101D90002F04309729F080913004909131040995F7
:101DA0001092A9061092A80629A53AA5AFA0B8A43A
:101DB000AB2811F00C9400050C94DE048091AF0662
:101DC000882339F010926F008091B0008F7D80934E
:101DD000B00008955058BB27AA270E94020F0C9408
:101DE00053100E94451038F00E944C1020F039F436
:101DF0009F3F19F426F40C9442100EF4E095E7FB93
:101E00000C943C10E92F0E94641058F3BA17620733
:101E100073078407950720F079F4A6F50C948610D3
:101E20000EF4E0950B2EBA2FA02D0B01B9019001F5
:101E30000C01CA01A0011124FF27591B99F0593F39
:101E400050F4503E68F11A16F040A22F232F342F81
:101E50004427585FF3CF469537952795A795F040CF
:101E60005395C9F77EF41F16BA0B620B730B840BE4
:101E7000BAF09150A1F0FF0FBB1F661F771F881F9C
:101E8000C2F70EC0BA0F621F731F841F48F48795F4
:101E900077956795B795F7959E3F08F0B0CF9395E6
:101EA000880F08F09927EE0F9795879508950E945F
:101EB0006B0F0C9453100E944C1058F00E94451068
:101EC00040F029F45F3F29F00C943C1051110C9420
:101ED00087100C9442100E94641068F39923B1F3A8
:101EE000552391F3951B550BBB27AA276217730740
:101EF000840738F09F5F5F4F220F331F441FAA1FD4
:101F0000A9F335D00E2E3AF0E0E832D0915050408F
:101F1000E695001CCAF72BD0FE2F29D0660F771F3D
:101F2000881FBB1F261737074807AB07B0E809F023
:101F3000BB0B802DBF01FF2793585F4F3AF09E3FA8
:101F4000510578F00C943C100C9487105F3FE4F33B
:101F5000983ED4F3869577956795B795F7959F5FEB
:101F6000C9F7880F911D9695879597F90895E1E037
:101F7000660F771F881FBB1F621773078407BA0796
:101F800020F0621B730B840BBA0BEE1F88F7E095F1
:101F900008950E94D00F6894B1110C948710089591
:101FA0000E946C1088F09F5798F0B92F9927B7516D
:101FB000B0F0E1F0660F771F881F991F1AF0BA95ED
:101FC000C9F714C0B13091F00E948610B1E00895B5
:101FD0000C948610672F782F8827B85F39F0B93FA7
:101FE000CCF3869577956795B395D9F73EF49095A0
:101FF0008095709561957F4F8F4F9F4F0895E8941E
:1020000009C097FB3EF490958095709561957F4F40
:102010008F4F9F4F9923A9F0F92F96E9BB279395EE
:10202000F695879577956795B795F111F8CFFAF4FE
:10203000BB0F11F460FF1BC06F5F7F4F8F4F9F4F2F
:1020400016C0882311F096E911C0772321F09EE88D
:10205000872F762F05C0662371F096E8862F70E0F3
:1020600060E02AF09A95660F771F881FDAF7880FCD
:102070009695879597F9089597F99F6780E870E09E
:1020800060E008959FEF80EC089500240A941616EE
:10209000170618060906089500240A941216130656
:1020A000140605060895092E0394000C11F48823E4
:1020B00052F0BB0F40F4BF2B11F460FF04C06F5F00
:1020C0007F4F8F4F9F4F089557FD9058440F551FD6
:1020D00059F05F3F71F04795880F97FB991F61F0AA
:1020E0009F3F79F087950895121613061406551F21
:1020F000F2CF4695F1DF08C0161617061806991F8D
:10210000F1CF86957105610508940895E894BB2781
:1021100066277727CB0197F908950E94FF1008F4EE
:102120008FEF08950E94A5100C9453100E94451043
:1021300038F00E944C1020F0952311F00C943C10C4
:102140000C94421011240C9487100E94641070F3B8
:10215000959FC1F3950F50E0551F629FF001729F4C
:10216000BB27F00DB11D639FAA27F00DB11DAA1F5B
:10217000649F6627B00DA11D661F829F2227B00DA8
:10218000A11D621F739FB00DA11D621F839FA00D33
:10219000611D221F749F3327A00D611D231F849F83
:1021A000600D211D822F762F6A2F11249F575040DA
:1021B0009AF0F1F088234AF0EE0FFF1FBB1F661F55
:1021C000771F881F91505040A9F79E3F510580F01E
:1021D0000C943C100C9487105F3FE4F3983ED4F3CA
:1021E000869577956795B795F795E7959F5FC1F7C2
:1021F000FE2B880F911D9695879597F90895990F55
:102200000008550FAA0BE0E8FEEF16161706E807C0
:10221000F907C0F012161306E407F50798F0621BE1
:10222000730B840B950B39F40A2661F0232B242BB6
:10223000252B21F408950A2609F4A140A6958FEFD5
:10224000811D811D0895AA1BBB1B51E107C0AA1F58
:10225000BB1FA617B70710F0A61BB70B881F991F47
:102260005A95A9F780959095BC01CD01089597FBEB
:10227000072E16F4009407D077FD09D00E94231191
:1022800007FC05D03EF4909581959F4F0895709579
:1022900061957F4F0895A1E21A2EAA1BBB1BFD0179
:1022A0000DC0AA1FBB1FEE1FFF1FA217B307E40735
:1022B000F50720F0A21BB30BE40BF50B661F771F8D
:1022C000881F991F1A9469F760957095809590956D
:1022D0009B01AC01BD01CF010895EE0FFF1F0590DA
:1022E000F491E02D09940E947E11A59F900DB49F5A
:1022F000900DA49F800D911D11240895A29FB001FF
:10230000B39FC001A39F700D811D1124911DB29F29
:10231000700D811D1124911D089510E0C5E6D0E0D7
:1023200004C0FE010E946D112196C636D107C9F77F
:04233000F894FFCF4F
:107800000C94343C0C94513C0C94513C0C94513CE1
:107810000C94513C0C94513C0C94513C0C94513CB4
:107820000C94513C0C94513C0C94513C0C94513CA4
:107830000C94513C0C94513C0C94513C0C94513C94
:107840000C94513C0C94513C0C94513C0C94513C84
:107850000C94513C0C94513C0C94513C0C94513C74
:107860000C94513C0C94513C11241FBECFEFD8E036
:10787000DEBFCDBF11E0A0E0B1E0ECE9FFE702C060
:1078800005900D92A230B107D9F712E0A2E0B1E065
:1078900001C01D92AD30B107E1F70E942D3D0C945F
:1078A000CC3F0C94003C982F959595959595959582
:1078B000905D8F708A307CF0282F295A8091C0000B
:1078C00085FFFCCF9093C6008091C00085FFFCCF60
:1078D0002093C6000895282F205DF0CF982F809127
:1078E000C00085FFFCCF9093C6000895EF92FF92F1
:1078F0000F931F93EE24FF2487018091C00087FD22
:1079000017C00894E11CF11C011D111D81E4E8164B
:1079100082E4F8068FE0080780E0180770F3E09132
:107920000401F091050109958091C00087FFE9CF1E
:107930008091C6001F910F91FF90EF9008950E94D3
:10794000763C982F8091C00085FFFCCF9093C600B5
:1079500091362CF490330CF09053892F089597555D
:10796000892F08951F930E949F3C182F0E949F3CCF
:107970001295107F810F1F9108951F93182F882350
:1079800021F00E94763C1150E1F71F9108951F935A
:10799000182F0E94763C803249F0809103018F5F5E
:1079A000809303018530C1F01F9108958091C0003C
:1079B00085FFFCCF84E18093C6008091C00085FFE5
:1079C000FCCF1093C6008091C00085FFFCCF80E102
:1079D0008093C6001F910895E0910401F091050184
:1079E00009951F9108950E94763C803241F0809164
:1079F00003018F5F80930301853081F008958091AA
:107A0000C00085FFFCCF84E18093C6008091C00058
:107A100085FFFCCF80E18093C6000895E0910401CA
:107A2000F09105010995089540E951E08823A1F0FE
:107A30002D9A28EE33E0FA013197F1F721503040CA
:107A4000D1F72D9828EE33E0FA013197F1F7215064
:107A50003040D1F7815061F708953F924F925F9285
:107A60006F927F928F929F92AF92BF92CF92DF924E
:107A7000EF92FF920F931F93CF93DF93000080E16B
:107A80008093C4001092C50088E18093C10086E015
:107A90008093C2005098589A259A81E00E94143D24
:107AA00024E1F22E9EE1E92E85E9D82E0FE0C02ECA
:107AB00010E1B12EAA24A394B1E49B2EA6E58A2E50
:107AC000F2E57F2EE0E26E2E79E4572E63E5462E36
:107AD00050E5352E0E94763C8033B1F18133B9F107
:107AE000803409F46FC0813409F476C0823409F41B
:107AF00085C0853409F488C0803531F1823521F1A3
:107B0000813511F1853509F485C0863509F48DC0BC
:107B1000843609F496C0843709F403C1853709F423
:107B200072C1863709F466C0809103018F5F80932C
:107B30000301853079F6E0910401F0910501099582
:107B40000E94763C803351F60E94F33CC3CF0E94E2
:107B5000763C803249F78091C00085FFFCCFF092DF
:107B6000C6008091C00085FFFCCF9092C600809136
:107B7000C00085FFFCCF8092C6008091C00085FFC9
:107B8000FCCF7092C6008091C00085FFFCCF609250
:107B9000C6008091C00085FFFCCF5092C600809146
:107BA000C00085FFFCCF4092C6008091C00085FFD9
:107BB000FCCF3092C6008091C00085FFFCCFB09210
:107BC000C60088CF0E94763C863808F4BDCF0E945C
:107BD000763C0E94F33C7ECF0E94763C803809F4CC
:107BE0009CC0813809F40BC1823809F43CC1883942
:107BF00009F48FC080E00E94C73C6CCF84E10E94F2
:107C0000BD3C0E94F33C66CF85E00E94BD3C0E94D3
:107C1000F33C60CF0E94763C809306010E94763C44
:107C2000809307010E94F33C55CF0E94763C80333D
:107C300009F41DC183E00E94BD3C80E00E94C73C66
:107C400049CF0E94763C809309020E94763C809343
:107C5000080280910C028E7F80930C020E94763C79
:107C6000853409F415C18091080290910902892B8D
:107C700089F000E010E00E94763CF801E85FFE4FDA
:107C800080830F5F1F4F80910802909109020817AF
:107C9000190788F30E94763C803209F045CF809125
:107CA0000C0280FF01C16091060170910701660F0F
:107CB000771F7093070160930601A0910802B091AD
:107CC00009021097C9F0E8E0F1E09B01AD014E0F09
:107CD0005F1FF999FECF32BD21BD819180BDFA9A17
:107CE000F99A2F5F3F4FE417F50799F76A0F7B1F4B
:107CF00070930701609306018091C00085FFFCCF5F
:107D0000F092C6008091C00085FFFCCFB092C60003
:107D1000E1CE83E00E94C73CDDCE82E00E94C73CFA
:107D2000D9CE0E94763C809309020E94763C8093D3
:107D300008028091060190910701880F991F909386
:107D40000701809306010E94763C853409F4A6C0A1
:107D500080910C028E7F80930C020E94763C8032D0
:107D600009F0B8CE8091C00085FFFCCFF092C6002C
:107D7000609108027091090261157105B9F140E046
:107D800050E080910C02A82FA170B82FB27011C0E2
:107D9000BB2309F45CC0E0910601F0910701319624
:107DA000F0930701E09306014F5F5F4F46175707B7
:107DB000E8F4AA2369F3F999FECF209106013091E6
:107DC000070132BD21BDF89A90B58091C00085FFB2
:107DD000FCCF9093C6002F5F3F4F30930701209355
:107DE00006014F5F5F4F4617570718F38091C00099
:107DF00085FDE5CE8091C00085FFF8CFE0CE81E023
:107E00000E94C73C67CE0E94763C803209F08CCE3F
:107E10008091C00085FFFCCFF092C6008091C00029
:107E200085FFFCCFE092C6008091C00085FFFCCFAB
:107E3000D092C6008091C00085FFFCCFC092C600E2
:107E40008091C00085FFFCCFB092C60043CEE09188
:107E50000601F091070194918091C00085FFFCCF4D
:107E60009093C6009CCF80E10E94C73C33CE0E9415
:107E7000763C0E94763C182F0E94763C112309F430
:107E800083C0113009F484C08FE00E94C73C22CE29
:107E900080910C02816080930C02E5CE80910C02EF
:107EA000816080930C0259CF809107018823880F4D
:107EB000880B8A2180930B02809106019091070123
:107EC000880F991F90930701809306018091080203
:107ED00080FF09C080910802909109020196909359
:107EE000090280930802F894F999FECF1127E091D6
:107EF0000601F0910701C8E0D1E08091080290915D
:107F00000902103091F40091570001700130D9F34B
:107F100003E000935700E89500915700017001308D
:107F2000D9F301E100935700E89509901990009169
:107F3000570001700130D9F301E000935700E89534
:107F40001395103498F011270091570001700130FB
:107F5000D9F305E000935700E895009157000170B0
:107F60000130D9F301E100935700E895329602976A
:107F700009F0C7CF103011F00296E5CF112480919F
:107F8000C00085FFB9CEBCCE8EE10E94C73CA2CD19
:0E7F900085E90E94C73C9ECDF894FFCF80008B
:00000001FF
